:100000000C9414010C943C010C943C010C943C01A4
:100010000C943C010C943C010C943C010C94191878
:100020000C943C010C943C010C943C010C94EE2883
:100030000C943C010C943C010C943C010C943C014C
:100040000C94BA130C943C010C94E01C0C94231DEA
:100050000C943C010C943C010C943C010C943C012C
:100060000C943C010C943C010000000700020100CC
:100070000003040600000000000000000102040864
:100080001020408001020408102001020408102002
:10009000040404040404040402020202020203032E
:1000A00003030303000000002300260029000000D2
:1000B0000000250028002B0000000000240027007D
:1000C0002A0002005EBCE2613FDD83C29C7E20A369
:1000D000FD1F419DC3217FFCA2401E5F01E3BD3E89
:1000E0006082DC237D9FC1421CFEA0E1BF5D0380D6
:1000F000DE3C62BEE0025CDF81633D7C22C09E1D6F
:1001000043A1FF4618FAA427799BC584DA3866E52F
:10011000BB5907DB856739BAE406581947A5FB7850
:1001200026C49A653BD987045AB8E6A7F91B45C689
:10013000987A24F8A6441A99C7257B3A6486D85B36
:1001400005E7B98CD2306EEDB3510F4E10F2AC2FE3
:100150007193CD114FADF3702ECC92D38D6F31B220
:10016000EC0E50AFF1134DCE90722C6D33D18F0C3D
:1001700052B0EE326C8ED0530DEFB1F0AE4C129106
:10018000CF2D73CA947628ABF517490856B4EA699F
:1001900037D58B5709EBB536688AD495CB2977F4D8
:1001A000AA4816E9B7550B88D6346A2B7597C94A01
:1001B00014F6A8742AC896154BA9F7B6E80A54D7BE
:1001C000896B354E414E494E495459494E46CDCC26
:1001D000CC3D0AD7233C17B7D13877CC2B32959535
:1001E000E6241FB14F0A000020410000C842004031
:1001F0001C4620BCBE4CCA1B0E5AAEC59D742806B8
:1002000044076A09830A2E0DE70D060FF4108712C2
:10021000A313DF1D390655077B09940A3F0DF80D1E
:10022000170F05119812B41311241FBECFEFD8E099
:10023000DEBFCDBF13E0A0E0B1E0E8E7F5E602C025
:1002400005900D92AA33B107D9F724E0AAE3B3E0F1
:1002500001C01D92AD36B207E1F711E0C4E1D2E072
:1002600004C02297FE010E94602ECE3FD107C9F73D
:100270000E94411C0C94AF320C940000CF92DF928C
:10028000EF92FF920F931F93CF93DF93EC018B01BB
:10029000CB010E94780E64E171E00E949730892BB7
:1002A00009F05AC0C8010E94740E880F991FEE8190
:1002B000FF81E80FF91F808191810E943F1CC801D6
:1002C0000E94740E6C010A811B8180179107B4F59E
:1002D000C8010197880F991F0E94732E7C0120E0AE
:1002E00030E040E050E020173107C4F42C153D0504
:1002F00091F0EE81FF81C901880F991FE80FF91F66
:1003000080819181FA01EE0FFF1FEE0DFF1D918399
:1003100080834F5F5F4F2F5F3F4FE5CF8E819F817F
:100320000E940B2FFF82EE828C819D8101979D831D
:100330008C838A819B8101979B838A836BE171E027
:1003400086E993E0DF91CF911F910F91FF90EF909D
:10035000DF90CF900C94611ADF91CF911F910F9194
:10036000FF90EF90DF90CF900895CF92DF92EF92C1
:10037000FF920F931F93CF93DF93EC018B01CB017F
:100380000E94780E64E171E00E949730892B09F099
:100390005AC0C8010E94740E880F991FEE81FF8118
:1003A000E80FF91F808191810E943F1CC8010E94C3
:1003B000740E6C010A811B8180179107B4F5C80186
:1003C0000197880F991F0E94732E7C0120E030E076
:1003D00040E050E020173107C4F42C153D0591F0A2
:1003E000EE81FF81C901880F991FE80FF91F8081F5
:1003F0009181FA01EE0FFF1FEE0DFF1D91838083A7
:100400004F5F5F4F2F5F3F4FE5CF8E819F810E94EF
:100410000B2FFF82EE828C819D8101979D838C83BF
:100420008A819B8101979B838A836BE171E086E9D6
:1004300093E0DF91CF911F910F91FF90EF90DF90AC
:10044000CF900C94611ADF91CF911F910F91FF9083
:10045000EF90DF90CF900895CF92DF92EF92FF92CE
:100460000F931F93CF93DF93EC018B01CB010E947D
:10047000780E64E171E00E949730892B09F05AC030
:10048000C8010E94740E880F991FEE81FF81E80F4A
:10049000F91F808191810E943F1CC8010E94740E47
:1004A0006C010A811B8180179107B4F5C80101977F
:1004B000880F991F0E94732E7C0120E030E040E0FD
:1004C00050E020173107C4F42C153D0591F0EE8162
:1004D000FF81C901880F991FE80FF91F8081918161
:1004E000FA01EE0FFF1FEE0DFF1D918380834F5F1A
:1004F0005F4F2F5F3F4FE5CF8E819F810E940B2F73
:10050000FF82EE828C819D8101979D838C838A81FD
:100510009B8101979B838A836BE171E086E993E07D
:10052000DF91CF911F910F91FF90EF90DF90CF90CF
:100530000C94611ADF91CF911F910F91FF90EF9072
:10054000DF90CF900895CF92DF92EF92FF920F93BA
:100550001F93CF93DF93EC018B01CB010E94780EA8
:1005600064E171E00E949730892B09F05AC0C801FC
:100570000E94740E880F991FEE81FF81E80FF91F0A
:10058000808191810E943F1CC8010E94740E6C0101
:100590000A811B8180179107B4F5C8010197880F64
:1005A000991F0E94732E7C0120E030E040E050E073
:1005B00020173107C4F42C153D0591F0EE81FF8121
:1005C000C901880F991FE80FF91F80819181FA01F5
:1005D000EE0FFF1FEE0DFF1D918380834F5F5F4F76
:1005E0002F5F3F4FE5CF8E819F810E940B2FFF82AF
:1005F000EE828C819D8101979D838C838A819B8172
:1006000001979B838A836BE171E086E993E0DF9138
:10061000CF911F910F91FF90EF90DF90CF900C94AE
:10062000611ADF91CF911F910F91FF90EF90DF90B2
:10063000CF900895CF92DF92EF92FF920F931F9386
:10064000CF93DF93EC018B01CB010E94780E64E124
:1006500071E00E949730892B09F05AC0C8010E94AE
:10066000740E880F991FEE81FF81E80FF91F8081BA
:1006700091810E943F1CC8010E94740E6C010A8186
:100680001B8180179107B4F5C8010197880F991F46
:100690000E94732E7C0120E030E040E050E0201703
:1006A0003107C4F42C153D0591F0EE81FF81C9019D
:1006B000880F991FE80FF91F80819181FA01EE0FD1
:1006C000FF1FEE0DFF1D918380834F5F5F4F2F5FF4
:1006D0003F4FE5CF8E819F810E940B2FFF82EE82DC
:1006E0008C819D8101979D838C838A819B81019759
:1006F0009B838A836BE171E086E993E0DF91CF9180
:100700001F910F91FF90EF90DF90CF900C94611AA2
:10071000DF91CF911F910F91FF90EF90DF90CF90DD
:100720000895CF92DF92EF92FF920F931F93CF9392
:10073000DF93EC018B01CB010E94780E64E171E044
:100740000E949730892B09F05AC0C8010E94740E8C
:10075000880F991FEE81FF81E80FF91F8081918139
:100760000E943F1CC8010E94740E6C010A811B810B
:1007700080179107B4F5C8010197880F991F0E944F
:10078000732E7C0120E030E040E050E0201731077C
:10079000C4F42C153D0591F0EE81FF81C901880F4D
:1007A000991FE80FF91F80819181FA01EE0FFF1F59
:1007B000EE0DFF1D918380834F5F5F4F2F5F3F4F93
:1007C000E5CF8E819F810E940B2FFF82EE828C816C
:1007D0009D8101979D838C838A819B8101979B8357
:1007E0008A836BE171E086E993E0DF91CF911F91FD
:1007F0000F91FF90EF90DF90CF900C94611ADF91F2
:10080000CF911F910F91FF90EF90DF90CF900895BF
:10081000CF92DF92EF92FF920F931F93CF93DF93CC
:10082000EC018B01CB010E94780E64E171E00E9423
:100830009730892B09F05AC0C8010E94740E880FA6
:10084000991FEE81FF81E80FF91F808191810E943D
:100850003F1CC8010E94740E6C010A811B81801725
:100860009107B4F5C8010197880F991F0E94732E54
:100870007C0120E030E040E050E020173107C4F474
:100880002C153D0591F0EE81FF81C901880F991F5C
:10089000E80FF91F80819181FA01EE0FFF1FEE0D25
:1008A000FF1D918380834F5F5F4F2F5F3F4FE5CFE9
:1008B0008E819F810E940B2FFF82EE828C819D8111
:1008C00001979D838C838A819B8101979B838A8377
:1008D0006BE171E086E993E0DF91CF911F910F9179
:1008E000FF90EF90DF90CF900C94611ADF91CF9141
:1008F0001F910F91FF90EF90DF90CF9008950F938D
:100900001F93CF93DF930E94760F8823B1F18AE083
:1009100090E00E943D1CEC010E94FE0DD0933B0331
:10092000C0933A0300E010E080913C0390913D03B6
:1009300008171907B4F4C801880F991FE091400304
:10094000F0914103E80FF91F80819181DC01ED9165
:10095000FC910190F081E02DBE0109950F5F1F4FC2
:10096000E3CF209751F0CE010E948A0ECE01DF9195
:10097000CF911F910F910C943F1CDF91CF911F914C
:100980000F9108958F929F92AF92BF92CF92DF9274
:10099000EF92FF920F931F93CF93DF93EC015B01D4
:1009A0008A819B81C880D9808C159D0564F17C016A
:1009B0002FEFE21AF20A4701880C991CC4010E9429
:1009C000732E8C01FC01E80DF91D3297B182A082D3
:1009D000DC0120E030E08C819D812C153D0564F424
:1009E000F901EE0FFF1FE80FF91F808191818D93B0
:1009F0009D932F5F3F4FEFCF0E940B2FF982E8822C
:100A00001D830C8308C0880F991FEC81FD81E80FBE
:100A1000F91F718360838A819B8101969B838A83FE
:100A2000DF91CF911F910F91FF90EF90DF90CF90CA
:100A3000BF90AF909F908F9008951F93CF93DF93B7
:100A400082E090E00E943D1C2EE932E0FC013183FF
:100A50002083BC018CE393E00E94C20482E090E01A
:100A60000E943D1C21E932E0FC0131832083BC015E
:100A70008CE393E00E94C20488E090E00E943D1C59
:100A8000EC0118E0FC01812F11928A95E9F789E3C6
:100A900091E0998388831B821A8280E090E00E9413
:100AA000732E9F838E831D821C828EEB92E099832E
:100AB0008883BE018CE393E00E94C20488E090E04A
:100AC0000E943D1CEC01FC01812F11928A95E9F7EF
:100AD00081E291E0998388831B821A8280E090E012
:100AE0000E94732E9F838E831D821C828AEB91E06D
:100AF00099838883BE018CE393E00E94C20488E05E
:100B000090E00E943D1CEC01FC01812F11928A951E
:100B1000E9F783E391E0998388831B821A8280E05E
:100B200090E00E94732E9F838E831D821C8285E439
:100B300092E099838883BE018CE393E00E94C20413
:100B400088E090E00E943D1CEC01FC01812F119295
:100B50008A95E9F787E291E0998388831B821A825C
:100B600080E090E00E94732E9F838E831D821C8202
:100B700086ED91E099838883BE018CE393E00E9427
:100B8000C20488E090E00E943D1CEC01FC01812F32
:100B900011928A95E9F78DE291E0998388831B820F
:100BA0001A8280E090E00E94732E9F838E831D82C4
:100BB0001C828DEF92E099838883BE018CE393E0E1
:100BC0000E94C20488E090E00E943D1CEC01FC0100
:100BD000812F11928A95E9F785E491E099838883C2
:100BE0001B821A8280E090E00E94732E9F838E8386
:100BF0001D821C8282E193E099838883BE018CE38D
:100C000093E00E94C20488E090E00E943D1CEC0149
:100C1000FC0111921A95E9F78FE391E0998388839B
:100C20001B821A8280E090E00E94732E9F838E8345
:100C30001D821C8285E891E099838883BE018CE344
:100C400093E00E94C204DF91CF911F910C941D0F7D
:100C500010923D0310923C0380E090E00E94732EBE
:100C6000909341038093400310923F0310923E0300
:100C7000089580914003909141030C940B2F4F9263
:100C80005F926F927F928F929F92AF92BF92CF921C
:100C9000DF92EF92FF920F931F93CF93DF931F92F8
:100CA000CDB7DEB78C012B01CB010E94700E67E43B
:100CB00071E00E949730892B09F0D4C0B201C801BD
:100CC0000E94B501C2010E94780E68E571E00E94A1
:100CD0009730892B09F069C060E070E0C2010E9482
:100CE0004A0ED82E61E070E0C2010E944A0E482FE1
:100CF00084E290E049830E943D1C7C0149816D2D76
:100D00000E94351ED80114968D919C9115971296CC
:100D10008D909C9013978815990594F15C01BFEF15
:100D2000AB1ABB0A3501660C771CC3010E94732EF7
:100D30006C01FC01E60DF71D3297F182E082DC01C7
:100D400020E030E0F801868197812815390564F4A8
:100D5000F901EE0FFF1FE80FF91F808191818D933C
:100D60009D932F5F3F4FEECF0E940B2FD80113961C
:100D7000BC92AE9212971796DC92CE9216970BC049
:100D8000880F991FD8011696ED91FC911797E80FDF
:100D9000F91FF182E082F80164817581CB0101962F
:100DA00095838483C2010E947F0EC2010E94780E47
:100DB0006CE571E00E949730892BE9F460E070E007
:100DC000C2010E944A0E682FC20169830E94740EFC
:100DD000880F991FD8011696ED91FC911797E80F8F
:100DE000F91F6981808191810E94571FAB01BC016D
:100DF000C2010E94860EC2010E94780E6DE671E06B
:100E00000E949730892B71F560E070E0C2010E946A
:100E10004A0E682FC20169830E94740E880F991FC1
:100E2000D8011696ED91FC911797E80FF91F69818B
:100E3000808191810E94FC1FAB01BC01C2010F9017
:100E4000DF91CF911F910F91FF90EF90DF90CF90A6
:100E5000BF90AF909F908F907F906F905F904F90DA
:100E60000C94860E0F90DF91CF911F910F91FF9000
:100E7000EF90DF90CF90BF90AF909F908F907F903A
:100E80006F905F904F900895109243031092420329
:100E900080E090E00E94732E909347038093460376
:100EA0001092450310924403089580914603909157
:100EB00047030C940B2F4F925F926F927F928F9209
:100EC0009F92AF92BF92CF92DF92EF92FF920F93D9
:100ED0001F93CF93DF93CDB7DEB76F970FB6F8941C
:100EE000DEBF0FBECDBF7C018B01CB010E94700E17
:100EF00067E871E00E949730892B09F0D4C1B801EE
:100F0000C7010E940804C8010E94780E68E571E0DC
:100F10000E949730892B09F061C060E070E0C80141
:100F20000E944A0E682F8EE090E06F8F0E943D1C59
:100F30006C016F8D0E947321D7011496AD90BC9007
:100F4000159712966D907C901397A614B7048CF1A8
:100F5000BFEFAB1ABB0A2501440C551CC2010E940D
:100F6000732E4C01FC01E40DF51D3297D182C08235
:100F7000DC0120E030E0F7018681978126153705F6
:100F800064F4F901EE0FFF1FE80FF91F80819181D2
:100F90008D939D932F5F3F4FEECF0E940B2FD70174
:100FA0001396BC92AE92129717969C928E921697B9
:100FB0000BC0AA0CBB1CD7011696ED91FC9117979C
:100FC000EA0DFB1DD182C082F70164817581CB01DE
:100FD000019695838483C8010E947F0EC8010E94F8
:100FE000780E67E971E00E949730892B09F07EC086
:100FF000C8010E94740E880F991FD7011696ED91B3
:10100000FC911797E80FF91FBE016F5F7F4F80813A
:1010100091810E94962181111CC0C8010E94740E0A
:10102000880F991FD7011696ED91FC911797E80F3D
:10103000F91F808191810E9461216AEF70E080E058
:1010400090E00E94331461E070E0C8010E947F0EBE
:101050004DC060E971E0CE0147960E94E318FE01A1
:1010600031966F015E01F8E0AF0EB11CD6016D91B3
:101070006D014AE0CE0109960E943319BE01675FF7
:101080007F4FCE0140960E9411196FE871E0CE01AA
:1010900040960E949419BC01CE0147960E948D197A
:1010A000CE0140960E947518CE0109960E947518CF
:1010B000CA14DB04D9F64AE06885CE0109960E947D
:1010C0003319BE01675F7F4FCE0147960E948D198D
:1010D000CE0109960E947518BE01695E7F4FC80156
:1010E0000E947C0ECE0147960E947518C8010E948E
:1010F000780E61E971E00E949730892BA9F4C8014C
:101100000E94740E880F991FD7011696ED91FC91DD
:101110001797E80FF91F808191810E94612160E09B
:1011200070E0C8010E947F0EC8010E94780E6EE92F
:1011300071E00E949730892BA9F4C8010E94740EB7
:10114000880F991FD7011696ED91FC911797E80F1C
:10115000F91F808191810E943420682F70E0C801BE
:101160000E947F0EC8010E94780E64EA71E00E941E
:101170009730892B89F5C8010E94460E0E94732E74
:101180006C015C0145018C189D08C8010E94460E47
:101190008816990644F4B401C8010E944A0EF5016C
:1011A00081935F01EFCFC8010E94740E880F991FD1
:1011B000D7011696ED91FC911797E80FF91FB6012C
:1011C000808191810E943021C6010E943F1C60E015
:1011D00070E0C8010E947F0EC8010E94780E6BEA81
:1011E00071E00E949730892B09F03FC0C8010E942E
:1011F000460E0197A9F460E070E0C8010E944A0E13
:10120000682FC8016F8F0E94740E880F991FD70135
:101210001696ED91FC911797E80FF91F40E01BC05F
:1012200061E070E0C8010E944A0E482F60E070E063
:10123000C8014E8F0E944A0E682FC8016F8F0E940E
:10124000740E880F991FD7011696ED91FC91179790
:10125000E80FF91F4E8D6F8D808191810E94D12002
:1012600060E070E0C8010E947F0EC8010E94780E05
:1012700061EB71E00E949730892BA9F4C8010E94AC
:10128000740E880F991FD7011696ED91FC91179750
:10129000E80FF91F808191810E941321682F70E06F
:1012A000C8010E947F0E6F960FB6F894DEBF0FBE86
:1012B000CDBFDF91CF911F910F91FF90EF90DF9005
:1012C000CF90BF90AF909F908F907F906F905F90E6
:1012D0004F900895109249031092480380E090E0E7
:1012E0000E94732E90934D0380934C0310924B03F6
:1012F00010924A03089580914C0390914D030C94F1
:101300000B2F6F927F928F929F92AF92BF92CF924C
:10131000DF92EF92FF920F931F93CF93DF938C0195
:10132000EB01CB010E94700E6CEB71E00E949730D4
:10133000892B09F0D9C0BE01C8010E949103CE01DA
:101340000E94780E68E571E00E949730892B09F0C1
:101350006FC060E070E0CE010E944A0E6C0161E057
:1013600070E0CE010E944A0E5C0162E070E0CE01A6
:101370000E944A0E4C018AE190E00E943D1C7C01D3
:101380009401A501B6010E943A22D80114968D91CC
:101390009C91159712968D909C901397881599059E
:1013A00094F15C01BFEFAB1ABB0A3501660C771CE8
:1013B000C3010E94732E6C01FC01E60DF71D3297EC
:1013C000F182E082DC0120E030E0F8018681978143
:1013D0002815390564F4F901EE0FFF1FE80FF91F16
:1013E000808191818D939D932F5F3F4FEECF0E941F
:1013F0000B2FD8011396BC92AE9212971796DC92DF
:10140000CE9216970BC0880F991FD8011696ED91B2
:10141000FC911797E80FF91FF182E082F8016481CF
:101420007581CB01019695838483CE010E947F0E46
:10143000CE010E94780E64EC71E00E949730892BF7
:1014400001F560E070E0CE010E944A0E7C01CE0101
:101450000E94740EA701662757FD6095762F880FAE
:10146000991FD8011696ED91FC911797E80FF91F77
:10147000808191810E94602260E070E0CE010E9434
:101480007F0ECE010E94780E6DEC71E00E949730C5
:10149000892B51F560E070E0CE010E944A0E7C017C
:1014A000CE010E94740E880F991FD8011696ED91F7
:1014B000FC911797E80FF91FB701808191810E9475
:1014C000F22260E070E0CE01DF91CF911F910F9189
:1014D000FF90EF90DF90CF90BF90AF909F908F9054
:1014E0007F906F900C947F0EDF91CF911F910F91A1
:1014F000FF90EF90DF90CF90BF90AF909F908F9034
:101500007F906F90089510924F0310924E0380E0E9
:1015100090E00E94732E9093530380935203109295
:1015200051031092500308958091520390915303F8
:101530000C940B2F4F925F926F927F928F929F929B
:10154000AF92BF92CF92DF92EF92FF920F931F93D1
:10155000CF93DF93CDB7DEB76E970FB6F894DEBFAB
:101560000FBECDBF7C018B01CB010E94700E68EDD8
:1015700071E00E949730892B09F059C2B801C70168
:101580000E94A302C8010E94780E68E571E00E94E3
:101590009730892B09F072C060E070E0C8010E94AA
:1015A0004A0E682F8EE090E06E8F0E943D1C5C0119
:1015B0006E8D0E94732183E190E00E943D1C6C01BE
:1015C000B5010E946523D70114966D907C90159704
:1015D00012968D909C901397681479048CF1BFEF4C
:1015E0006B1A7B0A2301440C551CC2010E94732E06
:1015F0005C01FC01E40DF51D3297D182C082DC0153
:1016000020E030E0F701868197812815390564F4E0
:10161000F901EE0FFF1FE80FF91F808191818D9373
:101620009D932F5F3F4FEECF0E940B2FD701139654
:101630007C926E9212971796BC92AE9216970BC040
:10164000660C771CD7011696ED91FC911797E60D65
:10165000F71DD182C082F70184819581019695831F
:101660008483C6010E949124D70114966D917C91C8
:10167000159761507109C8010E947F0EC8010E9430
:10168000780E6AEE71E00E949730892B09F061C0F4
:10169000C8010E94460E0197C9F460E070E0C801DD
:1016A0000E944A0E682FC8016E8F0E94740E880F28
:1016B000991FD7011696ED91FC911797E80FF91F26
:1016C0006E8D808191810E94CF252BC0C8010E9420
:1016D000460E02974CF1FE0131966F015F01460103
:1016E0008A189B08C8010E94460E8816990644F481
:1016F000B401C8010E944A0ED6018D936D01EFCF4F
:10170000C8010E94740E880F991FD7011696ED919B
:10171000FC911797E80FF91FB501808191810E9414
:101720008425682F70E012C0C8010E94740E880FD3
:10173000991FD7011696ED91FC911797E80FF91FA5
:10174000808191810E94632560E070E0C8010E9461
:101750007F0EC8010E94780E6EEF71E00E949730F4
:10176000892B09F04AC0C8010E94460E019729F052
:10177000FE0131966F015F0119C060E070E0C801A1
:101780000E944A0E682FC8016E8F0E94740E880F47
:10179000991FD7011696ED91FC911797E80FF91F45
:1017A0006E8D808191810E94C62622C046018A18D2
:1017B0009B08C8010E94460E8816990644F4B4019D
:1017C000C8010E944A0EF60181936F01EFCFC80154
:1017D0000E94740E880F991FD7011696ED91FC9107
:1017E0001797E80FF91FB501808191810E94962615
:1017F000AB01BC01C8010E94820EC8010E94780E94
:1018000067E072E00E949730892B09F04AC0C80156
:101810000E94460E019729F0FE0131966F015F018B
:1018200019C060E070E0C8010E944A0E682FC8012C
:101830006E8F0E94740E880F991FD7011696ED9136
:10184000FC911797E80FF91F6E8D808191810E949E
:10185000EA2622C046018A189B08C8010E94460E4B
:101860008816990644F4B401C8010E944A0EF60194
:1018700081936F01EFCFC8010E94740E880F991FEA
:10188000D7011696ED91FC911797E80FF91FB50156
:10189000808191810E94F926AB01BC01C8010E94A0
:1018A000820EC8010E94780E60E172E00E949730BB
:1018B000892B09F074C060E971E0CE0147960E945F
:1018C000E31860E070E0C8010E944A0E482FC8018A
:1018D0004E8F0E94740E880F991FD7011696ED91B6
:1018E000FC911797E80FF91F4E8DBE016F5F7F4F78
:1018F000808191810E94862381110AC061E070E09D
:10190000C8010E947F0ECE0147960E9475188FC0B5
:10191000FE0131966F015E01F8E0AF0EB11CD601F9
:101920006D916D014AE0CE0109960E943319BE0106
:10193000675F7F4FCE0140960E9411196FE871E0FA
:10194000CE0140960E949419BC01CE0147960E9498
:101950008D19CE0140960E947518CE0109960E94FD
:101960007518CA14DB04D9F64AE06885CE010996D9
:101970000E943319BE01675F7F4FCE0147960E94D8
:101980008D19CE0109960E947518BE01695E7F4FC0
:10199000C8010E947C0ECE0147960E947518C801AE
:1019A0000E94780E6BE172E00E949730892B61F4FF
:1019B00060E070E0C8010E94570E0E940827AB014A
:1019C000BC01C8010E94820EC8010E94780E68E224
:1019D00072E00E949730892B61F460E070E0C801EA
:1019E0000E94570E0E941527AB01BC01C8010E943E
:1019F000820EC8010E94780E62E372E00E94973066
:101A0000892BA9F4C8010E94740E880F991FD70171
:101A10001696ED91FC911797E80FF91F808191813F
:101A20000E947423682F70E0C8010E947F0E6E969A
:101A30000FB6F894DEBF0FBECDBFDF91CF911F91DF
:101A40000F91FF90EF90DF90CF90BF90AF909F905D
:101A50008F907F906F905F904F90089510925503F4
:101A60001092540380E090E00E94732E90935903EB
:101A70008093580310925703109256030895809153
:101A80005803909159030C940B2F0F931F93CF93EE
:101A9000DF93EB01CB010E94700E67E472E00E94BD
:101AA0009730892B09F08EC0CE010E94780E6FE42A
:101AB00072E00E949730892B99F461E070E0CE01CA
:101AC0000E944A0E182F60E070E0CE010E944A0E7C
:101AD000612F0E94011560E070E0CE010E947F0E30
:101AE000CE010E94780E6CE572E00E949730892B3F
:101AF00059F460E070E0CE010E944A0E0E94371552
:101B0000BC01CE010E947F0ECE010E94780E68E6D5
:101B100072E00E949730892B99F461E070E0CE0169
:101B20000E944A0E8C0160E070E0CE010E944A0ED5
:101B3000B8010E947D1560E070E0CE010E947F0E2A
:101B4000CE010E94780E64E772E00E949730892BE4
:101B500059F460E070E0CE010E944A0E0E946015C8
:101B6000BC01CE010E947F0ECE010E94780E6FE76D
:101B700072E00E949730892B99F461E070E0CE0109
:101B80000E944A0E182F60E070E0CE010E944A0EBB
:101B9000612F0E94C81460E070E0CE010E947F0EA9
:101BA000CE010E94780E67E872E00E949730892B80
:101BB00049F460E070E0CE01DF91CF911F910F9169
:101BC0000C947F0EDF91CF911F910F910895109289
:101BD0005B0310925A0380E090E00E94732E909372
:101BE0005F0380935E0310925D0310925C0308957F
:101BF00080915E0390915F030C940B2FEF92FF9204
:101C00000F931F93CF93DF93EC010E94740F9D837A
:101C10008C830E94740F8C010E9468309B838A839E
:101C2000C8010E940B2F0E94740F8C010E94683023
:101C30009F838E83C8010E940B2F0E94740F99838B
:101C400088838E819F81880F991F0E94732E9987A8
:101C5000888700E010E08E819F81081719077CF4C7
:101C6000C801880F991FE884F984E80EF91E0E94C4
:101C7000740FF701918380830F5F1F4FECCFDF91CB
:101C8000CF911F910F91FF90EF900895FC018681F5
:101C900097810895660F771FDC011896ED91FC91EE
:101CA0001997E60FF71F808191810C946830660FB9
:101CB000771FDC011896ED91FC911997E60FF71F3D
:101CC000808191810C946430660F771FDC01189637
:101CD000ED91FC911997E60FF71F8081918108958E
:101CE000FC01848195810895FC018281938108958E
:101CF000FC01808191810895CB010C94250FCB01CB
:101D00000C942A0FCB01BA010C94310FCB01BA010C
:101D10000C94390F0F931F93CF93DF93EC018881BD
:101D200099810E943F1C8C819D810E943F1C00E094
:101D300010E02E813F81888599850217130764F48E
:101D4000F801EE0FFF1FE80FF91F808191810E94BB
:101D50003F1C0F5F1F4FEDCFDF91CF911F910F9170
:101D60000C943F1C0F931F93CF93DF931F92CDB71B
:101D7000DEB78B01CB010E94700E63E972E00E9416
:101D80009730892BE9F5C8010E94780E6BEA71E063
:101D90000E949730892BB9F461E070E0C8010E947D
:101DA0004A0E482F60E070E0C80149830E944A0E45
:101DB000BC01498180E494E00E94252760E070E046
:101DC000C8010E947F0EC8010E94780E61EB71E08D
:101DD0000E949730892BA1F460E070E0C8010E9456
:101DE0004A0EBC0180E494E00E942227682F70E034
:101DF000C8010F90DF91CF911F910F910C947F0E2E
:101E00000F90DF91CF911F910F9108951092610370
:101E10001092600380E090E00E94732E909365031F
:101E2000809364031092630310926203089580917B
:101E30006403909165030C940B2F40E855E260E039
:101E400070E086E993E00C945E1DBC0186E993E0A6
:101E50000C944F1A4AE050E0BC0186E993E00C94E0
:101E6000161BAB01BC0122E030E086E993E00C9444
:101E70002B1CAB01BC012AE030E086E993E00C9416
:101E80002E1BEF92FF920F931F93CF93DF938EE160
:101E900090E00E94732E8C01C0E0D0E086E993E0D0
:101EA0000E94771C9FEF980F9E3F30F4F801EC0FD3
:101EB000FD1F80832196F2CF8111F0CFCE010196D4
:101EC0000E94732E7C01C00FD11F1882B8010E949E
:101ED000A030C8010E940B2FC701DF91CF911F9145
:101EE0000F91FF90EF9008950C94410F86E993E0D5
:101EF0000E944E1C21E0181619060CF020E0822FDB
:101F000008954F925F926F927F928F929F92AF92BD
:101F1000BF92CF92DF92EF92FF920F931F93CF93D6
:101F2000DF9300D0CDB7DEB75C012B01CB010E945F
:101F3000700E60EA72E00E949730892B09F041C16F
:101F4000B201C5010E942C02C2010E94780E68E510
:101F500071E00E949730892B09F0A8C060E070E022
:101F6000C2010E944A0E182F61E070E0C2010E9477
:101F70004A0E482F62E070E0C2014A830E944A0E76
:101F8000282F63E070E0C20129830E944A0E082FC7
:101F900064E070E0C2010E944A0EE82E65E070E045
:101FA000C2010E944A0EC82E85E190E00E943D1CAD
:101FB0004C0129814A81612F0E94C228D5011496C3
:101FC0008D919C9115971296CD90DC9013978C155E
:101FD0009D0594F17C01BFEFEB1AFB0A3701660CFB
:101FE000771CC3010E94732E8C01FC01E60DF71DC6
:101FF000329791828082DC0120E030E0F501868119
:1020000097812C153D0564F4F901EE0FFF1FE80FD1
:10201000F91F808191818D939D932F5F3F4FEECF6C
:102020000E940B2FD5011396FC92EE9212971796F1
:102030001C930E9316970BC0880F991FD501169607
:10204000ED91FC911797E80FF91F91828082F501BD
:102050008481958101969583848366E070E0C20156
:102060000E944A0E482F67E070E0C2014A830E9436
:102070004A0E682FC20169830E94740E880F991F4F
:10208000D5011696ED91FC911797E80FF91F20E006
:102090004A816981808191810E940E28F5016481C5
:1020A000758161507109C2010E947F0EC2010E94B8
:1020B000780E64EA72E00E949730892B09F041C0E3
:1020C000C2010E94460E039701F562E070E0C20172
:1020D0000E944A0E482F61E070E0C2014A830E94CC
:1020E0004A0E682FC20169830E94740E880F991FDF
:1020F000D5011696ED91FC911797E80FF91F4A81CB
:102100006981808191810E94D92760E070E0C201DD
:102110000E94640E8C01C2010E94740E880F991FE8
:10212000D5011696ED91FC911797E80FF91FB801AC
:10213000808191810E94321A60E070E0C2010E94A9
:102140007F0EC2010E94780E60EB72E00E94973011
:10215000892BB9F561E070E0C2010E944A0E482F58
:1021600060E070E0C2014A830E944A0E682FC201FB
:1021700069830E94740E880F991FD5011696ED9100
:10218000FC911797E80FF91F4A816981808191813D
:102190000E94D92760E070E0C2010F900F90DF919C
:1021A000CF911F910F91FF90EF90DF90CF90BF9054
:1021B000AF909F908F907F906F905F904F900C9416
:1021C0007F0E0F900F90DF91CF911F910F91FF9095
:1021D000EF90DF90CF90BF90AF909F908F907F90C7
:1021E0006F905F904F90089510926703109266036E
:1021F00080E090E00E94732E90936B0380936A03BB
:102200001092690310926803089580916A03909177
:102210006B030C940B2F6F927F928F929F92AF92D1
:10222000BF92CF92DF92EF92FF920F931F93CF93C3
:10223000DF938C01EB01CB010E94700E60EC72E029
:102240000E949730892B09F053C1BE01C8010E943A
:102250001A03CE010E94780E68E571E00E94973063
:10226000892B09F077C083E090E00E943D1C7C013F
:102270000E94AA29D80114968D919C9115971296C7
:102280008D909C9013978815990594F15C01BFEF90
:10229000AB1ABB0A3501660C771CC3010E94732E72
:1022A0006C01FC01E60DF71D3297F182E082DC0142
:1022B00020E030E0F801868197812815390564F423
:1022C000F901EE0FFF1FE80FF91F808191818D93B7
:1022D0009D932F5F3F4FEECF0E940B2FD801139697
:1022E000BC92AE9212971796DC92CE9216970BC0C4
:1022F000880F991FD8011696ED91FC911797E80F5A
:10230000F91FF182E082F80184819581019695831D
:10231000848360E070E0CE010E944A0ED8011496DA
:102320002D913C91159721503109220F331F16969C
:10233000ED91FC911797E20FF31FBC018081918111
:102340000E94442AF8016481758161507109CE01AF
:102350000E947F0ECE010E94780E6BEA71E00E940F
:102360009730892BE1F460E070E0CE010E944A0EC4
:102370007C01CE010E94740E880F991FD801169619
:10238000ED91FC911797E80FF91FB70180819181BA
:102390000E948B2A60E070E0CE010E947F0ECE0189
:1023A0000E94780E61EB71E00E949730892BA1F4B6
:1023B000CE010E94740E880F991FD8011696ED91D8
:1023C000FC911797E80FF91F808191810E940D2BD6
:1023D000BC01CE010E947F0ECE010E94780E66ECF9
:1023E00072E00E949730892BE1F460E070E0CE014A
:1023F0000E944A0E7C01CE010E94740E880F991F24
:10240000D8011696ED91FC911797E80FF91FB701C7
:10241000808191810E94582A60E070E0CE010E9484
:102420007F0ECE010E94780E68ED72E00E94973018
:10243000892BA1F4CE010E94740E880F991FD80138
:102440001696ED91FC911797E80FF91F8081918105
:102450000E94F02ABC01CE010E947F0ECE010E9494
:10246000780E69EE72E00E949730892BA9F4CE01B4
:102470000E94740E880F991FD8011696ED91FC9159
:102480001797E80FF91F808191810E944A2A60E026
:1024900070E0CE010E947F0ECE010E94780E60EFA8
:1024A00072E00E949730892B19F5CE010E94740EBC
:1024B000880F991FD8011696ED91FC911797E80F98
:1024C000F91F808191810E94592B682F70E0CE0105
:1024D000DF91CF911F910F91FF90EF90DF90CF9000
:1024E000BF90AF909F908F907F906F900C947F0ED5
:1024F000DF91CF911F910F91FF90EF90DF90CF90E0
:10250000BF90AF909F908F907F906F9008951092A2
:102510006D0310926C0380E090E00E94732E909304
:1025200071038093700310926F0310926E030895ED
:1025300080917003909171030C940B2F6F927F9296
:102540008F929F92AF92BF92CF92DF92EF92FF92C3
:102550000F931F93CF93DF938C01EB01CB010E946C
:10256000700E6FEF72E00E949730892B09F0DCC08B
:10257000BE01C8010E943E01CE010E94780E68E5AE
:1025800071E00E949730892B09F05BC060E070E039
:10259000CE010E944A0E6C0182E090E00E943D1C38
:1025A0007C01DC01CD92DC92F801848195818280EE
:1025B00093808815990594F15C01FFEFAF1ABF0A6B
:1025C0003501660C771CC3010E94732E6C01FC015F
:1025D000E60DF71D3297F182E082DC0120E030E069
:1025E000F801868197812815390564F4F901EE0F09
:1025F000FF1FE80FF91F808191818D939D932F5FBD
:102600003F4FEECF0E940B2FD8011396BC92AE9293
:1026100012971796DC92CE92169709C0880F991FD1
:102620000680F781E02DE80FF91FF182E082F801C2
:1026300064817581CB01019695838483CE010E94CC
:102640007F0ECE010E94780E64E073E00E94973006
:10265000892BE1F560E070E0CE010E944A0E6C012A
:1026600060E070E0CE010E944A0E4C01CE010E9453
:10267000740E880F991FD8011696ED91FC9117974B
:10268000E80FF91FA080B180EE24D7FCE094FE2C67
:10269000A7019601B401F50180810E94DC15C701F4
:1026A000B6010E94B32C26E636E646EA5FE30E94B6
:1026B000672D0E94852C0E943314D5018C910E94B5
:1026C000041860E070E0CE010E947F0ECE010E94EF
:1026D000780E69E073E00E949730892B29F5CE01CE
:1026E0000E94740E880F991FD8011696ED91FC91E7
:1026F0001797E80FF91F0190F081E02D80810E946B
:10270000041860E070E0CE01DF91CF911F910F912E
:10271000FF90EF90DF90CF90BF90AF909F908F9001
:102720007F906F900C947F0EDF91CF911F910F914E
:10273000FF90EF90DF90CF90BF90AF909F908F90E1
:102740007F906F900895109273031092720380E04F
:1027500090E00E94732E90937703809376031092FB
:102760007503109274030895809176039091770316
:102770000C940B2F1F920F920FB60F9211242F93D0
:102780003F938F939F93AF93BF93809179039091E1
:102790007A03A0917B03B0917C033091780323E00E
:1027A000230F2D3720F40196A11DB11D05C026E889
:1027B000230F0296A11DB11D209378038093790306
:1027C00090937A03A0937B03B0937C0380917D0365
:1027D00090917E03A0917F03B09180030196A11D8B
:1027E000B11D80937D0390937E03A0937F03B093EC
:1027F0008003BF91AF919F918F913F912F910F9047
:102800000FBE0F901F9018952FB7F8946091790321
:1028100070917A0380917B0390917C032FBF089580
:102820003FB7F89480917D0390917E03A0917F0340
:10283000B091800326B5A89B05C02F3F19F00196E3
:10284000A11DB11D3FBF6627782F892F9A2F620FD8
:10285000711D811D911D42E0660F771F881F991F12
:102860004A95D1F70895CF92DF92EF92FF92CF93DE
:10287000DF936B017C010E941014EB01C114D104A1
:10288000E104F10479F00E9410146C1B7D0B683E8A
:102890007340A0F381E0C81AD108E108F108C851DB
:1028A000DC4FECCFDF91CF91FF90EF90DF90CF9096
:1028B00008950197009739F0880F991F880F991F85
:1028C00002970197F1F70895789484B5826084BDEA
:1028D00084B5816084BD85B5826085BD85B5816024
:1028E00085BDEEE6F0E0808181608083E1E8F0E084
:1028F0001082808182608083808181608083E0E8B3
:10290000F0E0808181608083E1EBF0E08081846091
:102910008083E0EBF0E0808181608083EAE7F0E093
:1029200080818460808380818260808380818160F7
:1029300080838081806880831092C10008958330F5
:1029400081F028F4813099F08230A1F0089586302A
:10295000A9F08730B9F08430D1F4809180008F7D68
:1029600003C0809180008F7780938000089584B5A4
:102970008F7702C084B58F7D84BD08958091B000AB
:102980008F7703C08091B0008F7D8093B000089551
:10299000CF93DF9390E0FC01E458FF4F2491FC01BA
:1029A000E057FF4F8491882349F190E0880F991FE9
:1029B000FC01E854FF4FA591B49182559F4FFC0153
:1029C000C591D4919FB7611108C0F8948C9120955E
:1029D00082238C93888182230AC0623051F4F89458
:1029E0008C91322F309583238C938881822B88831E
:1029F00004C0F8948C91822B8C939FBFDF91CF9170
:102A000008950F931F93CF93DF931F92CDB7DEB737
:102A1000282F30E0F901E859FF4F8491F901E4587B
:102A2000FF4F1491F901E057FF4F04910023C9F0C3
:102A3000882321F069830E949F146981E02FF0E0D0
:102A4000EE0FFF1FE255FF4FA591B4919FB7F89489
:102A50008C91611103C01095812301C0812B8C934F
:102A60009FBF0F90DF91CF911F910F910895CF934A
:102A7000DF93282F30E0F901E859FF4F8491F901E5
:102A8000E458FF4FD491F901E057FF4FC491CC2394
:102A900091F081110E949F14EC2FF0E0EE0FFF1FC8
:102AA000EC55FF4FA591B4912C912D2381E090E03E
:102AB00021F480E002C080E090E0DF91CF910895A2
:102AC0008E3008F08E50877020910A0190E4299F83
:102AD00090011124822B80937C0080917A00806485
:102AE00080937A0080917A0086FDFCCF80917800F7
:102AF0002091790090E0922B08951F93CF93DF935C
:102B0000182FEB0161E00E94C814209711F460E0D7
:102B100004C0CF3FD10539F461E0812FDF91CF911F
:102B20001F910C940115E12FF0E0E859FF4FE4915B
:102B3000E330F9F048F4E130B9F0E230A1F584B5C2
:102B4000806284BDC8BD34C0E630E9F0E73019F1D9
:102B5000E43049F580918000806280938000D093BA
:102B60008B00C0938A0024C084B5806884BDC7BD33
:102B70001FC080918000806880938000D09389007E
:102B8000C093880015C08091B00080688093B00029
:102B9000C093B3000DC08091B00080628093B000FC
:102BA000C093B40005C0C038D1050CF0B5CFAFCF8D
:102BB000DF91CF911F9108953F924F925F926F9254
:102BC0007F928F929F92AF92BF92CF92DF92EF92BD
:102BD000FF920F931F93CF93DF9300D000D0CDB718
:102BE000DEB78B0129013A0190910B01981721F072
:102BF0009F3F09F0D3C104C0E2ECF0E0349081C003
:102C000080930B01E2ECF0E0E491EF3F09F4C6C1E0
:102C1000E13031F1E23009F44BC0E11171C014BC74
:102C200015BC94B5926094BD95B5916095BD282F63
:102C300030E0F901E057FF4FE491F0E0EE0FFF1FA5
:102C4000E255FF4F45915491509391034093900367
:102C5000F901E458FF4F249120938F03312C53C086
:102C60001092800010928100909181009860909362
:102C7000810090918100916090938100282F30E035
:102C8000F901E057FF4FE491F0E0EE0FFF1FE2552E
:102C9000FF4F4591549150938A0340938903F90162
:102CA000E458FF4F249120938803332433942BC09E
:102CB0001092B0001092B1009091B0009260909389
:102CC000B0009091B10091609093B100282F30E056
:102CD000F901E057FF4FE491F0E0EE0FFF1FE255DE
:102CE000FF4F459154915093830340938203F90120
:102CF000E458FF4F24912093810352E0352E03C006
:102D00003E2E37FC4BC161E00E94C8144801A12C43
:102D1000B12C832D8D7F09F0C0C060E072E18AE79D
:102D200090E0A50194010E94202E29833A834B83D1
:102D30005C8369017A0181E0C81AD108E108F108D1
:102D40009FEFC916D104E104F10409F008F49AC018
:102D500060E472E48FE090E0A50194010E94202ECF
:102D600069017A01E1E0CE1AD108E108F108F2E048
:102D70003F1219C08FEFC816D104E104F10409F025
:102D800008F487C060E970ED83E090E0A50194014C
:102D90000E94202E69017A0191E0C91AD108E10848
:102DA000F10883E001C082E0EFEFCE16D104E10428
:102DB000F10409F008F467C068E478EE81E090E07F
:102DC000A50194010E94202E69017A01F1E0CF1A39
:102DD000D108E108F1083320E1F082E038121BC08D
:102DE0009FEFC916D104E104F10409F008F4D4C03E
:102DF00064E274EF80E090E0A50194010E94202E2F
:102E000069017A01E1E0CE1AD108E108F10885E014
:102E100003C083E001C084E0FFEFCF16D104E104DA
:102E2000F10489F180F162E17AE780E090E0A501A8
:102E300094010E94202E69017A0181E0C81AD1080C
:102E4000E108F108311002C084E001C086E09FEF84
:102E5000C916D104E104F104B1F0A8F0C980DA8008
:102E6000EB80FC809AE0F594E794D794C7949A9508
:102E7000D1F7E1E0CE1AD108E108F108332031F0B2
:102E800087E008C081E0332011F004C085E085BDF3
:102E900034C082E08093B10030C060E072E18AE724
:102EA00090E0A50194010E94202E69017A01F1E0D1
:102EB000CF1AD108E108F108C114D10481E0E80675
:102EC000F10488F068E478EE81E090E0A5019401D7
:102ED0000E94202E69017A0191E0C91AD108E10807
:102EE000F10893E001C091E0E1E03E1206C080915C
:102EF0008100887F892B80938100411451046104F3
:102F0000710471F0D801AA0FBB1FA30192010E94A6
:102F10003F2E28EE33E040E050E00E94FE2D03C03B
:102F20002FEF3FEFA901F1E03F16A1F082E0381644
:102F300019F1311033C0C7BC20939203309393032F
:102F4000409394035093950380916E008260809328
:102F50006E0024C0D0928900C092880020938B0319
:102F600030938C0340938D0350938E0380916F00B8
:102F7000826080936F0012C0C092B30020938403DC
:102F800030938503409386035093870380917000AC
:102F900082608093700002C084E07CCF0F900F901D
:102FA0000F900F90DF91CF911F910F91FF90EF90B5
:102FB000DF90CF90BF90AF909F908F907F906F9059
:102FC0005F904F903F900895813039F018F0823033
:102FD00051F0089510926E00089580916F008D7FDA
:102FE00080936F000895809170008D7F80937000B2
:102FF00081E08093B0008091B100887F84608093ED
:10300000B1001092B3000895CF93C82F80910B01A7
:103010008C1307C0E2ECF0E084919FEF90930B01DA
:1030200001C08FEF0E94E41760E08C2FCF910C94C9
:1030300001151F920F920FB60F9211242F933F93F9
:103040004F935F936F937F938F939F93AF93BF93B0
:10305000EF93FF938091840390918503A091860361
:10306000B0918703892B8A2B8B2B51F1909181038F
:10307000E0918203F091830380818927808380918E
:10308000840390918503A0918603B091870318165D
:1030900019061A061B06C4F48091840390918503D7
:1030A000A0918603B09187030197A109B10980938C
:1030B000840390938503A0938603B093870304C091
:1030C00080910B010E940418FF91EF91BF91AF9185
:1030D0009F918F917F916F915F914F913F912F9130
:1030E0000F900FBE0F901F901895FC018081918169
:1030F0000C940B2FCF93DF93EC018881998100977B
:1031000011F00E940B2F198218821D821C821B82D3
:103110001A82DF91CF9108950F931F93CF93DF937E
:10312000EC018B016F5F7F4F888199810E949A2FFC
:10313000009731F0998388831B830A8381E001C063
:1031400080E0DF91CF911F910F910895CF93DF938E
:10315000EC0188819981892B29F08A819B818617CE
:10316000970760F4CE010E948C18882341F08C816F
:103170009D81892B19F4E881F981108281E0DF912A
:10318000CF910895EF92FF920F931F93CF93DF9308
:10319000EC017B018A01BA010E94A618811104C0CA
:1031A000CE010E947A1807C01D830C83B701888165
:1031B00099810E94A030CE01DF91CF911F910F9194
:1031C000FF90EF900895FC01118210821382128209
:1031D0001582148216826115710559F0FB01019068
:1031E0000020E9F7AF0141505109461B570B0C94E1
:1031F000C2180895CF93DF93EC01FB018617970760
:1032000061F0608171816115710529F044815581FA
:103210000E94C21802C00E947A18CE01DF91CF919D
:103220000895FC0111821082138212821582148289
:1032300016820C94FA18CF93DF93EC016115710597
:1032400061F0FB0101900020E9F7AF014150510905
:10325000461B570B0E94C21802C00E947A18CE016A
:10326000DF91CF9108950F931F93CF93DF93CDB745
:10327000DEB729970FB6F894DEBF0FBECDBF8C0125
:10328000862FF80111821082138212821582148215
:10329000168250E0BE016F5F7F4F90E00E94AF301A
:1032A000BE016F5F7F4FC8010E941B1929960FB6A0
:1032B000F894DEBF0FBECDBFDF91CF911F910F916C
:1032C0000895EF92FF920F931F93CF93DF93EC013A
:1032D0007B010C811D816115710511F480E016C020
:1032E0004115510591F0040F151FB8010E94A61851
:1032F0008823A1F3288139818C819D81B701820FB8
:10330000931F0E94A0301D830C8381E0DF91CF9139
:103310001F910F91FF90EF900895FB01448155811B
:10332000608171810C946119CF93DF93EC01611579
:10333000710569F0FB0101900020E9F7AF014150F0
:103340005109461B570B0E946119811103C0CE0120
:103350000E947A18CE01DF91CF910895FC0124815B
:1033600035816217730748F480819181009729F0B5
:10337000FC01E60FF71F8081089580E00895CF9249
:10338000DF92EF92FF920F931F93CF93DF936C0125
:103390007A01EB01E60EF71E00E010E0CE15DF0526
:1033A00061F06991D601ED91FC910190F081E02DE1
:1033B000C6010995080F191FF1CFC801DF91CF9100
:1033C0001F910F91FF90EF90DF90CF9008956115BE
:1033D000710581F0DB010D900020E9F7AD0141504E
:1033E0005109461B570BDC01ED91FC910280F381E2
:1033F000E02D099480E090E00895AF92BF92CF92C3
:10340000DF92EF92FF920F931F93CF93DF937C0194
:103410006B01C0E0D0E000E010E0D60114968D9181
:103420009C911597C817D90788F4D701ED91FC91A5
:10343000A080B180BE01C6010E94AE19682FC701ED
:10344000F5010995080F191F2196E7CFC801DF91F3
:10345000CF911F910F91FF90EF90DF90CF90BF9091
:10346000AF9008950C94E719DC01ED91FC91019067
:10347000F081E02D09940F931F93CF93DF93EC011C
:103480006DE00E94341A8C016AE0CE010E94341A69
:10349000800F911FDF91CF911F910F9108950F938E
:1034A0001F93CF93DF93EC010E94FD198C01CE0195
:1034B0000E943B1A800F911FDF91CF911F910F91B6
:1034C00008950F931F93CF93DF93EC010E94E719A8
:1034D0008C01CE010E943B1A800F911FDF91CF918A
:1034E0001F910F9108958F929F92AF92BF92CF92AA
:1034F000DF92EF92FF920F931F93CF93DF93CDB79D
:10350000DEB7A1970FB6F894DEBF0FBECDBF7C012A
:10351000C42EE52FCB01D22E19A221E02D1510F0DB
:103520002AE0D22E8E010F5D1F4F8D2C912CA12CE5
:10353000B12C6C2D7E2FA50194010E94FE2D8C2DA7
:10354000D29E80191124015011098A3010F4805D37
:1035500001C0895CF80180832115310541055105C1
:1035600021F0C22EE32FCA01E4CFB801C7010E94A7
:10357000E719A1960FB6F894DEBF0FBECDBFDF915D
:10358000CF911F910F91FF90EF90DF90CF90BF9060
:10359000AF909F908F900895CF92DF92EF92FF921D
:1035A0000F931F93CF93DF93EC016A017B012115E9
:1035B000310579F4E881F9810190F081E02D642FE3
:1035C000DF91CF911F910F91FF90EF90DF90CF90FF
:1035D00009942A303105E9F477FF1AC06DE20E94A0
:1035E000341A8C0144275527BA014C195D096E091C
:1035F0007F092AE0CE010E94731A800F911FDF918C
:10360000CF911F910F91FF90EF90DF90CF90089591
:103610002AE0B701A601CE01DF91CF911F910F9152
:10362000FF90EF90DF90CF900C94731A0F931F933D
:10363000CF93DF93EC019A01AB01662757FD6095AC
:10364000762F0E94CC1A8C01CE010E943B1A800F6B
:10365000911FDF91CF911F910F9108950F931F93A9
:10366000CF93DF93EC010E94CC1A8C01CE010E9413
:103670003B1A800F911FDF91CF911F910F910895F9
:103680004F925F926F927F928F929F92AF92BF9272
:10369000CF92DF92EF92FF920F931F93CF93DF931E
:1036A000EC016A017B01B22E9A01AB01C701B601A0
:1036B0000E94CA2D882319F064E173E027C0260117
:1036C0003701E89477F82FEF3FEF4FE75FE7C3014B
:1036D000B2010E94CA2D81110DC02FEF3FEF4FE7BD
:1036E0005FE7C301B2010E94142C18161CF468E1B4
:1036F00073E00CC02FEF3FEF4FE75FE4C701B60167
:103700000E94632D1816ACF46CE173E0CE01DF91DA
:10371000CF911F910F91FF90EF90DF90CF90BF90CE
:10372000AF909F908F907F906F905F904F900C9490
:10373000E7192FEF3FEF4FE75FECC701B6010E949B
:10374000142C87FDE1CF20E030E0A901C701B601CC
:103750000E94142C87FF0AC06DE2CE010E94341A29
:103760008C01F7FAF094F7F8F09402C000E010E052
:10377000A12C60E070E080E09FE3AB1441F020E01A
:1037800030E040E251E40E94182CA394F6CF9B0154
:10379000AC01C701B6010E94B02B6B017C010E94F5
:1037A000852C2B013C010E94B12C9B01AC01C7016F
:1037B000B6010E94AF2B6B017C012AE0B301A2018C
:1037C000CE010E94731A080F191FBB2039F060E266
:1037D00073E0CE010E94E719080F191F7B2C772098
:1037E00041F120E030E040E251E4C701B6010E941F
:1037F000672D6B017C010E94802C4B01AA2497FC51
:10380000A094BA2C2AE030E0B501A401CE010E94B8
:10381000CC1A080F191FC501B4010E94B32C9B01DB
:10382000AC01C701B6010E94AF2B6B017C017A94F9
:10383000D6CFC801DF91CF911F910F91FF90EF90EC
:10384000DF90CF90BF90AF909F908F907F906F90C0
:103850005F904F9008950F931F93CF93DF93EC01E8
:103860000E94401B8C01CE010E943B1A800F911FC9
:10387000DF91CF911F910F9108950C94732E0C94AA
:103880000B2F0E9464140E941D05CAE1DDE10E9415
:103890007F042097E1F30E941A1DF9CFFC012485D3
:1038A0003585F901E05CFF4F80819181329620815E
:1038B0003181821B930B8F7399270895FC018485B6
:1038C0009585FC01E05CFF4F40815181329620815B
:1038D00031814217530741F00190F081E02DE80F4C
:1038E000F91F808190E008958FEF9FEF0895FC010C
:1038F00084859585FC01E05CFF4F408151813296C3
:10390000208131814217530779F0A081B181A80F3E
:10391000B91F8C91208131812F5F3F4F2F73332747
:103920003183208390E008958FEF9FEF0895FC018D
:1039300081A1882329F0A489B5898C9186FFFBCFCA
:1039400011A20895CF93DF93FC0126853785D90115
:10395000A05CBF4F8D919C91119701968F73992711
:10396000E901CE5BDF4F4881598184179507D9F370
:103970000D90BC91A02DA20FB31F6C93A685B785A7
:10398000A05CBF4F11969C938E93A689B7892C910A
:1039900081E090E0078C02C0880F991F0A94E2F73B
:1039A000282B2C9381E081A30488F589E02D808168
:1039B0008064808381E090E0DF91CF910895089545
:1039C0001F920F920FB60F9211242F933F934F9394
:1039D0008F939F93EF93FF938091C00082FD1CC053
:1039E0004091C60080913C0490913D0401968F73F4
:1039F000992720913E0430913F048217930771F07C
:103A0000E0913C04F0913D04E450FC4F40839093DE
:103A10003D0480933C0402C08091C600FF91EF9169
:103A20009F918F914F913F912F910F900FBE0F90CB
:103A30001F90189586E993E00E944E1C892B11F087
:103A40000C94DF1C08951F920F920FB60F92112451
:103A50002F933F938F939F93EF93FF932091F803BE
:103A60003091F9038091FA039091FB0328173907ED
:103A700031F48091C1008F7D8093C10014C0E0912A
:103A8000FA03F091FB03E854FC4F20818091FA0384
:103A90009091FB0301968F7399279093FB0380937A
:103AA000FA032093C600FF91EF919F918F913F9170
:103AB0002F910F900FBE0F901F901895CF92DF920D
:103AC000EF92FF92CF93DF93EC016A017B014115E6
:103AD00081EE580761057105F9F0EC89FD8981E0F7
:103AE00090E008A002C0880F991F0A94E2F7808333
:103AF00060E079E08DE390E0A70196010E94FE2D41
:103B00002150310941095109569547953795279517
:103B1000211580E1380798F0EC89FD89108260E872
:103B200074E88EE190E0A70196010E94FE2D2150DD
:103B30003109410951095695479537952795E889E7
:103B4000F9893083EA89FB89208319A2EE89FF89EC
:103B5000408181E090E09C010C8C02C0220F331F59
:103B60000A94E2F7422B4083EE89FF8940819C0151
:103B70000D8C02C0220F331F0A94E2F7422B4083C0
:103B8000EE89FF8940819C010E8C02C0220F331FF9
:103B90000A94E2F7422B4083EE89FF8920810F8C43
:103BA00002C0880F991F0A94E2F7809582238083D0
:103BB000DF91CF91FF90EF90DF90CF90089510921A
:103BC00099031092980388EE93E0A0E0B0E0809310
:103BD0009A0390939B03A0939C03B0939D0386E26A
:103BE00093E090939703809396038CEF93E09093E8
:103BF000A3038093A20388EB93E09093A5038093A3
:103C0000A40385EC90E09093A7038093A60384EC33
:103C100090E09093A9038093A80380EC90E09093A8
:103C2000AB038093AA0381EC90E09093AD03809363
:103C3000AC0382EC90E09093AF038093AE0386ECEC
:103C400090E09093B1038093B00384E08093B2033B
:103C500083E08093B30387E08093B40385E080938F
:103C6000B50381E08093B60308950F931F93CF931C
:103C7000DF93EC0181E090E09983888386E391E013
:103C80009F838E8300EE15E729E030E008871987CF
:103C90002A873B8700E21EE420E030E00C871D8786
:103CA0002E873F87643120F08FEF9FEF99838883C1
:103CB000443120F08FEF9FEF99838883262F30E0E7
:103CC000F901E458FF4FE491E88FF901E057FF4F05
:103CD000249130E0220F331FF901E854FF4F659122
:103CE00074917A8F698F22553F4FF9012591349154
:103CF0003C8F2B8F842F90E0FC01E458FF4FE49120
:103D0000ED8FFC01E057FF4F849190E0880F991FE1
:103D1000FC01E854FF4F259134913F8F2E8FFC0119
:103D2000EC55FF4F2591349139A328A382559F4F1D
:103D3000FC01859194919BA38AA3F894E98DFA8D57
:103D40008081988D892B808378944FEF5FEF6FEFA0
:103D50007FE04A835B836C837D830E940414688BBD
:103D6000798B8A8B9B8BDF91CF911F910F91089557
:103D70000F931F93FC01F894A38DB48D9C91808DBB
:103D8000809589238C93A68DB78D9C91858D809588
:103D900089238C93A2A1B3A19C91858D80958923C1
:103DA0008C93A68DB78D8C91958D892B8C93A68D38
:103DB000B78D9C91858D809589238C93A38DB48D2F
:103DC0008C91908D892B8C937894A0A1B1A1958D25
:103DD0008C91892344895589668977890085118565
:103DE00022853385811106C040175107620773078A
:103DF00008F440C00417150726073707C0F1F894E8
:103E0000A2A1B3A18C91958D892B8C93A68DB78D92
:103E10008C91958D892B8C93A68DB78D9C91858DDA
:103E2000809589238C93A2A1B3A19C91858D8095C7
:103E300089238C93A38DB48D9C91808D809589234B
:103E40008C937894A0A1B1A1958D8C9189234489FC
:103E50005589668977890085118522853385882370
:103E600091F04017510762077307A8F00CC08EEF5E
:103E70009FEF1AC04F5F5F4F6F4F7F4F448B558B43
:103E8000668B778BA5CF401751076207730778F7CA
:103E900081E090E009C04F5F5F4F6F4F7F4F448BD1
:103EA000558B668B778BD1CF1F910F910895CF9251
:103EB000DF92EF92FF920F931F93CF93DF931F92A6
:103EC000CDB7DEB78C01FC01148A158A168A178AD1
:103ED000662341F08081918197FF08C06FEF7FEFEB
:103EE000CB0180C060E070E0CB017CC0F12CC80148
:103EF00069830E94B81E698197FD5EC0F394F61233
:103F0000F6CF0E940414F801C088D188E288F388B3
:103F10006C197D098E099F09C484D584E684F784D1
:103F2000C616D706E806F90648F5C488D588E68897
:103F3000F7886281738184819581C616D706E80669
:103F4000F90629F0C61AD70AE80AF90A03C0C12CF3
:103F5000D12C76010E94B12C2DEC3CEC4CEC5DE3B5
:103F60000E94672D0E94802CAB01662757FD60954B
:103F7000762FC416D506E606F70618F1F8018489EF
:103F80009589A689B789C280D380E480F5808C1595
:103F90009D05AE05BF0520F482839383A483B5837A
:103FA000F801C280D380E480F580BC01CD016C199A
:103FB0007D098E099F0916C06EEF7FEF8FEF9FEF8F
:103FC00011C04FEF5FEF6FEF7FE0F8014283538343
:103FD000648375830E940414F801608B718B828B5B
:103FE000938BCCCF0F90DF91CF911F910F91FF90CA
:103FF000EF90DF90CF900895EF92FF921F93CF93B1
:10400000DF931F92CDB7DEB77C01FC01148A158ABD
:10401000168A178A662341F08081918197FF08C034
:104020006FEF7FEFCB0119C060E070E0CB0115C0EE
:1040300010E0C70169830E94B81E698197FD09C01D
:104040001F5F1613F6CFF7016489758986899789F2
:1040500004C06EEF7FEF8FEF9FEF0F90DF91CF9156
:104060001F91FF90EF900895FF920F931F93CF93AE
:10407000DF93FC010081C181D281F8948981F02E07
:10408000F0948F21898378941DE7115029F182E003
:1040900090E00E94591488818023B9F3F8948A81B2
:1040A0008F218A838981802B8983789484EF91E0A2
:1040B0000E945914F89489818F21898380E590E0CA
:1040C0000E9459148881802311E009F010E078944F
:1040D00084EA91E00E945914812FDF91CF911F91C2
:1040E0000F91FF9008951F93CF93DF93FC011081F0
:1040F000C181D281912F909560FF12C0F8948A817E
:1041000089238A838981812B89838AE090E00E94B8
:1041100059148A81812B8A83789487E390E011C0B7
:10412000F8948A8189238A838981812B898381E418
:1041300090E00E9459148A81812B8A83789485E0CB
:1041400090E0DF91CF911F910C9459140F931F931E
:10415000CF93DF93FC011081C181D281F8948981D2
:10416000812B89838A81012F009580238A8383E0B4
:1041700090E00E9459148981802389838AE090E02D
:104180000E945914C881789485E390E00E945914E4
:104190001C2381E009F480E0DF91CF911F910F9102
:1041A0000895CF92DF92EF92FF920F931F93CF93D8
:1041B000DF931F92CDB7DEB76C01E62E08E010E06A
:1041C000FF24F39461E09F2D9E2109F460E0C60175
:1041D00049830E947320FF0C015011094981011588
:1041E000110581F7411115C0F894D6011196ED9192
:1041F000FC91129791818C918095892381831196EE
:10420000ED91FC91129792818C9180958923828304
:1042100078940F90DF91CF911F910F91FF90EF90C5
:10422000DF90CF900895EF92FF920F931F93CF935B
:10423000DF938C01C8E0D0E0F12CEE24E394C801B8
:104240000E94A6208111FE28EE0C21972097B9F735
:104250008F2DDF91CF911F910F91FF90EF900895D7
:10426000CF92DF92EF92FF920F931F93CF93DF9342
:104270001F92CDB7DEB77C01162F40E065E579834C
:104280000E94D120C12E7981D72E00E010E0F601E6
:1042900061916F0140E0C7010E94D1200F5F1F4F65
:1042A00008301105A1F70F90DF91CF911F910F9169
:1042B000FF90EF90DF90CF90089540E06CEC0C946D
:1042C000D120FC0113861586148627E030E0DF013B
:1042D000A20FB31F13961C922115310519F021501E
:1042E0003109F5CF08951F93CF93DF93EC01162F7B
:1042F00060E0812F0E94C814612F70E0FB01E45838
:10430000FF4FE491E883FB01E057FF4FE491F0E0B9
:10431000EE0FFF1FEC55FF4F859194919A8389838F
:10432000CE01DF91CF911F910C946121AF92BF928A
:10433000CF92DF92EF92FF920F931F93CF93DF9371
:104340001F92CDB7DEB75C01E62ED72EFC01858526
:1043500081115DC0C5010E943420811105C0F501A5
:104360001386158614866EC040E060EFC5010E947A
:10437000D12001E0F12CC12C11E0C5010E94A62042
:10438000682FC50169830E94A6206981613019F4F4
:104390008130B9F433C02F2D30E068131BC0F50114
:1043A0008385181730F4E20FF31F8381802349F4CB
:1043B00002C0181731F060E0193058F4F501148785
:1043C00008C0F501EF0DF11D8381802B838361E02F
:1043D00009C0C12EF501E20FF31F8381902F909544
:1043E00089238383C5010E9473201F5F000F11F48E
:1043F000F39401E0F7E0FF1508F0BFCF113438F077
:10440000F501C386C11018C081E0858715C0F5018C
:1044100013861586148680E0EE2DFD2D20E030E019
:10442000D501A20FB31F13969C9191932F5F3F4F1D
:1044300028303105A9F706C0F5018381882339F3B7
:1044400081E0EACF0F90DF91CF911F910F91FF9004
:10445000EF90DF90CF90BF90AF900895DC0180E0A7
:10446000615038F0ED91E827F0E0ED53FF4F849173
:10447000F7CF0895CF93DF93EC01842F1D861C8620
:104480001B821A82198218821E8A1F8A188E198E20
:10449000798768874E875F87398B288B61E00E9418
:1044A000C81461E088890E94C8141B8A1A8A1D8A70
:1044B0001C8A82E090E09B878A87DF91CF910895E4
:1044C000CF92DF92EF92FF92CF93DF93EC016A01DC
:1044D0007B0128853985442737FD4095542F60E6B8
:1044E0007AEE80E090E00E94202ECA01B901A70177
:1044F00096010E94202E2C833D834E835F83DF91A3
:10450000CF91FF90EF90DF90CF9008950F931F937E
:10451000CF93DF93EC018B018A859B850297F9F499
:104520006130710571F02CF461157105C1F460E022
:1045300009C06230710559F06330710581F460E0A3
:1045400007C061E08E850E94011561E005C061E051
:104550008E850E94011560E088890E9401158A8578
:104560009B850497D1F501301105A9F044F4012B86
:10457000A1F561E08E850E94011560E011C0023056
:104580001105B9F00330110541F561E08E850E94F7
:10459000011560E013C060E08E850E94011561E0A6
:1045A00088890E94011561E08A890E94011560E0F6
:1045B0000DC060E08E850E94011561E088890E942F
:1045C000011560E08A890E94011561E08C89DF9104
:1045D000CF911F910F910C940115DF91CF911F91F5
:1045E0000F9108958F929F92AF92BF92EF92FF9298
:1045F0000F931F93CF93DF93EC018B0177FF04C0E0
:1046000000271127061B170B161617062CF481E03E
:1046100090E09983888304C0672B11F01982188277
:1046200084E0E82EF12C0115110509F442C00E9426
:1046300004148E889F88A88CB98C681979098A0916
:104640009B098C809D80AE80BF80681579058A05A6
:104650009B0568F30E9404146E8B7F8B888F998F63
:10466000288139818C859D852130310559F4019649
:104670009D878C87288539858217930771F41D865D
:104680001C860BC0892B21F4888599859D878C8792
:104690008C859D8501979D878C87015011098C859C
:1046A0009D85B7010E94EA2DBC01CE010E948622A1
:1046B000BACFDF91CF911F910F91FF90EF90BF90F4
:1046C000AF909F908F9008950895FC0184E693E247
:1046D000928B818B768365831482108289E081833B
:1046E00081E0828383830895FC0184810895CF93C0
:1046F000DF93EB0167E0CE010E942E2291E02F8133
:10470000821390E0892FDF91CF910895EF92FF926D
:104710000F931F93CF93DF93EC018B01E42E8D81D8
:104720009E810E946121F12CB8018D819E810E94A1
:104730009621882359F0FE1006C0B801CE010E94D0
:104740007723811104C0F394EF1470F780E0DF91B8
:10475000CF911F910F91FF90EF900895EF92FF92EC
:104760000F931F93CF93DF9300D0CDB7DEB77C01BB
:104770008A01FC018581968169837A830E943420B5
:1047800069817A81F701858196810E94302140E01C
:104790006EEBF701858196810E94D120F70185811A
:1047A00096810E941321F8018083F701858196810B
:1047B0000E941321F8018183F701858196810E946F
:1047C0001321F8018283F701858196810E941321CC
:1047D000F8018383F701858196810E941321F801F6
:1047E0008483F701858196810E941321F8018583D6
:1047F000F701858196810E941321F8018683F701D4
:10480000858196810E941321F8018783F7018581B4
:1048100096810E941321F8018087F7018581968196
:104820000F900F90DF91CF911F910F91FF90EF901C
:104830000C943420CF93DF93EA010E94AE2368E00A
:10484000CE010E942E2291E02885821390E0892FCC
:10485000DF91CF910895EF92FF921F93CF93DF9353
:1048600000D0CDB7DEB77C01FC01858196816983DC
:104870007A830E94342069817A81F701858196814B
:104880000E94302140E064EBF701858196810E940F
:10489000D120F701858196810E94A620182FF7016B
:1048A000858196810E94342081E0111180E00F9073
:1048B0000F90DF91CF911F91FF90EF900895CF93CC
:1048C000DF93CDB7DEB729970FB6F894DEBF0FBEE2
:1048D000CDBFFB0120812031D1F0AE014F5F5F4F92
:1048E0000E941A24882379F08D818F3351F018F4B7
:1048F0008F3169F008C08F3541F08F3721F48CE09B
:1049000007C08AE005C080E003C08BE001C089E0F9
:1049100029960FB6F894DEBF0FBECDBFDF91CF91C1
:104920000895EF92FF920F931F93CF93DF93CDB72C
:10493000DEB761970FB6F894DEBF0FBECDBF8C0116
:10494000FC01858196810E946121F8011482FF2477
:10495000F394BE01665F7F4FF801858196810E94C6
:1049600096218823C9F1BE01665F7F4FC8010E946E
:104970007723882371F3F8018081811108C0BE017B
:10498000665F7F4FC8010E942B24811122C0AE01B7
:104990004F5F5F4FBE01665F7F4FC8010E94AE232D
:1049A000F801E180BE01665F7F4FC8010E945F246D
:1049B0008E1518F4F801818106C0BE01665F7F4F35
:1049C000C8010E945F24F801818384818F5F848302
:1049D000C0CFF801F082DBCF61960FB6F894DEBF4E
:1049E0000FBECDBFDF91CF911F910F91FF90EF9040
:1049F0000895CF93DF93CDB7DEB729970FB6F8941C
:104A0000DEBF0FBECDBFAE014F5F5F4F0E94AE2332
:104A100081E09981911101C080E029960FB6F89448
:104A2000DEBF0FBECDBFDF91CF910895CF92DF9251
:104A3000EF92FF920F931F93CF93DF93EC018B01C3
:104A4000452BE1F08B818823C9F08881811116C044
:104A50000E9404146B017C0160E070E0CE010E94B2
:104A6000F92481110BC00E9404146C197D098E0970
:104A70009F096E3E72408105910570F3F8018081B7
:104A80008A3049F08B3061F0893079F46EE570E05E
:104A900080E090E00EC06CEB70E080E090E009C038
:104AA00067E771E080E090E004C06EEE72E080E0C5
:104AB00090E0DF91CF911F910F91FF90EF90DF90E9
:104AC000CF900C943314CF93DF93EC018D819E81B2
:104AD0000E9434208D819E810E945D21488164E482
:104AE0008D819E810E94D1208A81882351F0BE0150
:104AF0006F5F7F4F40E050E0CE01DF91CF910C948B
:104B00001625DF91CF910895DF92EF92FF920F93D8
:104B10001F93CF93DF93CDB7DEB72A970FB6F894E4
:104B2000DEBF0FBECDBF8C017B01FC01858196816C
:104B30000E943420B701F801858196810E943021BE
:104B4000F801408164E4858196810E94D120AE0104
:104B50004F5F5F4FB701C8010E941A24882389F074
:104B6000F801D280DD2069F0B701C8010E945F24FE
:104B70008A87A701BE01665F7F4FC8010E94162584
:104B80008D2D2A960FB6F894DEBF0FBECDBFDF91F4
:104B9000CF911F910F91FF90EF90DF9008950F93A9
:104BA0001F93CF93DF93CDB7DEB728970FB6F89456
:104BB000DEBF0FBECDBF8C01462FBE016F5F7F4FA2
:104BC0000E948623BE016F5F7F4FC8010E9484252B
:104BD00028960FB6F894DEBF0FBECDBFDF91CF9100
:104BE0001F910F9108958F929F92AF92BF92CF9293
:104BF000DF92EF92FF921F93CF93DF93FB01EA01C5
:104C0000698170E0762F66278881682B80818232E7
:104C1000B1F18832A1F1803109F078C01F8175951A
:104C20006795882777FD8095982F0E94B32C20E008
:104C300030E040E85EE30E94AF2B6B017C01612F06
:104C400070E08E81681B7109882777FD8095982F09
:104C50000E94B32C4B015C01612F70E080E090E07A
:104C60000E94B12C9B01AC01C501B4010E94182C1B
:104C70009B01AC01C701B6010E94B02B43C08C81DF
:104C80008F3381F198F48F3109F040C093E075952E
:104C900067959A95E1F7882777FD8095982F0E9470
:104CA000B32C20E030E040E05FE32AC08F3569F0AC
:104CB0008F3761F5882777FD8095982F0E94B32C58
:104CC00020E030E040E85DE31BC0759567958827DC
:104CD00077FD8095982F0E94B32C20E030E040E0D3
:104CE0005EE30EC07595679575956795882777FD86
:104CF0008095982F0E94B32C20E030E040E85EE3DE
:104D00000E94672D562F472F382F292F652F742F7C
:104D1000832F922FDF91CF911F91FF90EF90DF9023
:104D2000CF90BF90AF909F908F900895EF92FF9299
:104D30000F931F93CF93DF93CDB7DEB729970FB6AD
:104D4000F894DEBF0FBECDBF8C017B01AE014F5F7B
:104D50005F4F0E941A24882341F0AE014F5F5F4FDE
:104D6000B701C8010E94F32504C060E070E08EEF37
:104D700092EC29960FB6F894DEBF0FBECDBFDF913F
:104D8000CF911F910F91FF90EF9008950F931F9374
:104D9000CF93DF93CDB7DEB728970FB6F894DEBF79
:104DA0000FBECDBF8C01462FBE016F5F7F4F0E94AB
:104DB0008623BE016F5F7F4FC8010E94962628960A
:104DC0000FB6F894DEBF0FBECDBFDF91CF911F911C
:104DD0000F9108950E94C62626E636E646EE5FE36A
:104DE0000E94672D20E030E040E052E40E94B02BAA
:104DF00008950E94962626E636E646EE5FE30E9478
:104E0000672D20E030E040E052E40E94B02B08958E
:104E100026E636E646EE5FE30E94672D20E030E0AE
:104E200040E052E40E94B02B089520E030E040E0E2
:104E300052E40E94AF2B26E636E646EE5FE30E9480
:104E4000182C0895CB010C94D430CB01642F0C9412
:104E5000DC30CF93DF93EC0160E08E810E9401157E
:104E600081E090E00E94591461E08E810E9401155A
:104E700081E090E00E94591460E08E810E9401154B
:104E800084E690E0DF91CF910C945914CF92DF9299
:104E9000EF92FF920F931F93CF93DF937C01C0E0BB
:104EA000D0E0C62ED12C87010C0F1D1F61E0F80148
:104EB00087810E94C814B6010C2E02C075956795B3
:104EC0000A94E2F76170F80187810E94011521962A
:104ED000C430D10541F7C701DF91CF911F910F91E8
:104EE000FF90EF90DF90CF900C942927CF92DF9224
:104EF000EF92FF920F931F93CF93DF937C01C0E05B
:104F0000D0E0C62ED12C87010C0F1D1F61E0F801E7
:104F100087810E94C814B6010C2E02C07595679552
:104F20000A94E2F76170F80187810E9401152196C9
:104F3000C830D10541F7C701DF91CF911F910F9183
:104F4000FF90EF90DF90CF900C9429271F93CF9381
:104F5000DF93EC01162F642F8C810E9401158D8147
:104F60008F3F19F060E00E9401158F85612F84FF4B
:104F700006C0CE01DF91CF911F910C94762770E08F
:104F800084E0759567958A95E1F7CE010E944627E2
:104F9000612FCE01DF91CF911F910C94462740E005
:104FA0000C94A62761E00E94CF2780ED97E00C9437
:104FB0005914CF93DF93CDB7DEB728970FB6F89487
:104FC000DEBF0FBECDBF28E0ECE0F1E0DE011196C0
:104FD00001900D922A95E1F7FC012389421710F008
:104FE0004FEF420FFE013196E40FF11DE40FF11D6A
:104FF0002081260F2068622F28960FB6F894DEBF16
:105000000FBECDBFDF91CF910C94CF27FC016089FB
:10501000262F2460208B6C600C94CF27CF93DF93D6
:10502000EC01423018F08F8588608F874B8B1C8A8B
:10503000222329F0413019F48F8584608F8780E521
:1050400093EC0E94591460E08C810E94011560E08D
:105050008E810E9401158D818F3F19F060E00E94C2
:1050600001156F8564FD1DC063E0CE010E944627D7
:1050700084E991E10E94591463E0CE010E94462721
:1050800084E991E10E94591463E0CE010E94462711
:1050900086E990E00E94591462E0CE010E94462702
:1050A00016C06062CE010E94CF2784E991E10E9480
:1050B00059146F856062CE010E94CF2786E990E087
:1050C0000E9459146F856062CE010E94CF276F85C0
:1050D0006062CE010E94CF2784E0888BCE010E94BF
:1050E0000628CE010E94D22782E0898B66E0CE019D
:1050F000DF91CF910C94CF276F927F928F92AF92D6
:10510000CF92EF920F931F93CF93DF93CDB7DEB77C
:105110003C01162F842F5D854E853F859889F301CC
:10512000848325830683E782C086A186828653878F
:1051300044873587968761E00E94C814F301858112
:105140008F3F19F061E00E94C81461E0F30186818D
:105150000E94C814112319F0F301178603C080E1DF
:10516000F301878720E041E060E1C301DF91CF9147
:105170001F910F91EF90CF90AF908F907F906F9095
:105180000C940E288F92AF92CF92EF920F93DC0186
:1051900013961C921E921297E6E3F3E0ED93FC93B4
:1051A0001F921F921F921F928C2CAE2CC02EE22EAB
:1051B000042F2FEF462F61E00E947C280F900F9064
:1051C0000F900F900F91EF90CF90AF908F90089528
:1051D00041E00E94A62781E090E008951F920F927F
:1051E0000FB60F9211242F933F934F935F936F93BA
:1051F0007F938F939F93AF93BF93EF93FF93809190
:10520000420487FF05C010928500109284001AC0E6
:1052100020914204332727FD30958091410490E08E
:10522000281739077CF480914204992787FD9095CF
:10523000FC01EE0FFF1FE80FF91FED5BFB4F8081B4
:1052400086FD15C0809142048F5F809342042091B7
:105250004204332727FD30958091410490E02817C0
:105260003907BCF4809142048C305CF112C080910B
:105270004204992787FD9095FC01EE0FFF1FE80F70
:10528000F91FED5BFB4F808160E08F730E94011579
:10529000D9CF8091840090918500049680349C49F8
:1052A00018F480E49CE905C0809184009091850009
:1052B000049690938900809388008FEF8093420436
:1052C00038C080918400909185002091420433275A
:1052D00027FD3095F901EE0FFF1FE20FF31FED5B85
:1052E000FB4F21813281820F931F9093890080931D
:1052F000880080914204992787FD9095FC01EE0F6C
:10530000FF1FE80FF91FED5BFB4F808186FF11C087
:1053100080914204992787FD9095FC01EE0FFF1FB5
:10532000E80FF91FED5BFB4F808161E08F730E94F6
:105330000115FF91EF91BF91AF919F918F917F9157
:105340006F915F914F913F912F910F900FBE0F90F2
:105350001F901895209141042C30A0F431E0320FB9
:1053600030934104FC012083822F90E0FC01EE0F7A
:10537000FF1FE80FF91FED5BFB4F88EB9BE092836B
:10538000818308952FEFFC0120830895DF92EF922F
:10539000FF920F931F93CF93DF93EC01D62E7A01E8
:1053A000890188818C3008F066C061E08D2D0E94F3
:1053B000C8148881A82FB0E0FD01EE0FFF1FEA0F8F
:1053C000FB1FED5BFB4F2D2D2F739081907C922B5B
:1053D000908360E272E06E197F0977FF02C06D5F13
:1053E0007F4F7595679575956795698340E659E098
:1053F000401B510B57FF02C04D5F5F4F55954795BE
:10540000559547954A832CE0622F0E94DE2D289FF8
:10541000B001112420E030E0A901460F571FFA0126
:10542000EE0FFF1FE40FF51FED5BFB4F908196FD24
:1054300016C02F5F3F4F2C30310571F781110FC01F
:105440001092800082E0809381001092850010927B
:105450008400B19A80916F00826080936F00888190
:1054600090E0FC01EE0FFF1FE80FF91FED5BFB4F13
:105470008081806480838881DF91CF911F910F911B
:10548000FF90EF90DF90089520E639E040E252E08F
:105490000C94C629FC01808190E0FC01EE0FFF1FF7
:1054A000E80FF91FED5BFB4F80818F7B80830895B0
:1054B000FC0180818C3070F5918128E830E0291B57
:1054C000310997FD3395220F331F220F331F6217C7
:1054D00073077CF0928128E532E0291B310997FDA2
:1054E0003395220F331F220F331F621773070CF4FB
:1054F0009B014FB7F89490E0FC01EE0FFF1FE80FFF
:10550000F91FED5BFB4F22503109220F331F32830D
:1055100021834FBF08954F925F926F927F92AF9217
:10552000BF92CF92DF92EF92FF920F931F93CF9390
:10553000DF93EC01603282E078070CF040C077FD29
:1055400006C0653B71052CF064EB70E002C060E0C2
:1055500070E0898128E830E0281B310987FD339508
:10556000220F331F220F331F5901CC24B7FCC094E4
:10557000DC2C882777FD8095982F2A8148E552E01A
:10558000421B510927FD5395440F551F440F551FCA
:105590002A01662457FC6094762C7F926F925F926A
:1055A0004F9214EBE12EF12C00E010E020E030E00F
:1055B000A9010E94682B0F900F900F900F90CE01C1
:1055C000DF91CF911F910F91FF90EF90DF90CF90DF
:1055D000BF90AF907F906F905F904F900C94582A3F
:1055E000FC0180818F3FB1F090E0FC01EE0FFF1FC6
:1055F000E80FF91FED5BFB4F8181928143E0880F3B
:10560000991F4A95E1F754E0969587955A95E1F7E9
:105610000296089580E090E00895AF92BF92CF92F5
:10562000DF92EF92FF920F931F93CF93DF93EC01E2
:105630000E94F02A2A8148E552E0421B510927FDC9
:105640005395440F551F440F551F7A010027F7FC4F
:105650000095102F498128E830E0241B310947FDCF
:105660003395220F331F220F331F442737FD4095F8
:10567000542F0196BC01882777FD8095982F1F92A3
:105680001F921F92E4EBEF93A12CB12C65010E94B5
:10569000682B0F900F900F900F90CB01DF91CF915F
:1056A0001F910F91FF90EF90DF90CF90BF90AF9040
:1056B0000895FC01808190E0FC01EE0FFF1FE80FD0
:1056C000F91FED5BFB4F808186FB882780F90895E9
:1056D0004F925F926F927F92AF92BF92CF92DF9282
:1056E000EF92FF920F931F93CF93DF93CDB7DEB767
:1056F00029013A01621B730B840B950B29893A89A6
:105700004B895C892A193B094C095D09298B3A8B25
:105710004B8B5C8B9B01AC0169897A898B899C8955
:105720000E94CE2DE418F50806091709A801970173
:105730000E94202E2A0D3B1D4C1D5D1DCA01B90182
:10574000DF91CF911F910F91FF90EF90DF90CF905D
:10575000BF90AF907F906F905F904F90089550589A
:10576000BB27AA270ED075C166D130F06BD120F0CF
:1057700031F49F3F11F41EF45BC10EF4E095E7FB9A
:1057800051C1E92F77D180F3BA17620773078407F5
:10579000950718F071F49EF58FC10EF4E0950B2E6D
:1057A000BA2FA02D0B01B90190010C01CA01A00173
:1057B0001124FF27591B99F0593F50F4503E68F1CE
:1057C0001A16F040A22F232F342F4427585FF3CF0F
:1057D000469537952795A795F0405395C9F77EF4E0
:1057E0001F16BA0B620B730B840BBAF09150A1F029
:1057F000FF0FBB1F661F771F881FC2F70EC0BA0FAF
:10580000621F731F841F48F4879577956795B79536
:10581000F7959E3F08F0B3CF9395880F08F099272E
:10582000EE0F979587950895D9D008F481E00895F3
:105830000CD00FC107D140F0FED030F021F45F3F13
:1058400019F0F0C0511139C1F3C014D198F3992364
:10585000C9F35523B1F3951B550BBB27AA27621734
:105860007307840738F09F5F5F4F220F331F441F79
:10587000AA1FA9F333D00E2E3AF0E0E830D09150B1
:105880005040E695001CCAF729D0FE2F27D0660F9E
:10589000771F881FBB1F261737074807AB07B0E8DD
:1058A00009F0BB0B802DBF01FF2793585F4F2AF0F3
:1058B0009E3F510568F0B6C000C15F3FECF3983ED3
:1058C000DCF3869577956795B795F7959F5FC9F750
:1058D000880F911D9695879597F90895E1E0660FD9
:1058E000771F881FBB1F621773078407BA0720F052
:1058F000621B730B840BBA0BEE1F88F7E0950895BB
:1059000004D06894B111D9C00895BCD088F09F57D5
:1059100090F0B92F9927B751A0F0D1F0660F771FFB
:10592000881F991F1AF0BA95C9F712C0B13081F0DB
:10593000C3D0B1E00895C0C0672F782F8827B85F23
:1059400039F0B93FCCF3869577956795B395D9F73C
:105950003EF490958095709561957F4F8F4F9F4F46
:105960000895E89409C097FB3EF490958095709552
:1059700061957F4F8F4F9F4F9923A9F0F92F96E99B
:10598000BB279395F695879577956795B795F11110
:10599000F8CFFAF4BB0F11F460FF1BC06F5F7F4FAD
:1059A0008F4F9F4F16C0882311F096E911C07723BF
:1059B00021F09EE8872F762F05C0662371F096E8C8
:1059C000862F70E060E02AF09A95660F771F881F97
:1059D000DAF7880F9695879597F90895990F00083B
:1059E000550FAA0BE0E8FEEF16161706E807F907B1
:1059F000C0F012161306E407F50798F0621B730B4C
:105A0000840B950B39F40A2661F0232B242B252BCC
:105A100021F408950A2609F4A140A6958FEF811D6F
:105A2000811D089597F99F6780E870E060E0089510
:105A30009FEF80EC089500240A94161617061806A6
:105A40000906089500240A94121613061406050682
:105A50000895092E0394000C11F4882352F0BB0F13
:105A600040F4BF2B11F460FF04C06F5F7F4F8F4F76
:105A70009F4F089557FD9058440F551F59F05F3FB1
:105A800071F04795880F97FB991F61F09F3F79F060
:105A900087950895121613061406551FF2CF4695E2
:105AA000F1DF08C0161617061806991FF1CF869564
:105AB0007105610508940895E894BB276627772748
:105AC000CB0197F908958ADF08F48FEF08950BD082
:105AD000C0CFB1DF28F0B6DF18F0952309F0A2CFD0
